{
  "transactions": [
    {
      "hash": "0x8d48559d44afe3f4ae4e89222901e85b6180d6e0b73e9c815af99d5b4d5a8db8",
      "transactionType": "CALL",
      "contractName": null,
      "contractAddress": "0x7EdB762bb3E7a7402Bb3Cd8DFAEb04Fe15ab0829",
      "function": "wrapBatch((((uint8,address),uint256,uint256),address,(bytes1,uint256,address)[],(bytes1,uint256)[],(address,uint16)[],uint8,uint256,bytes2)[],((uint8,address),uint256,uint256)[],address[],address)",
      "arguments": [
        "[(((0, 0x0000000000000000000000000000000000000000), 0, 0), 0x0000000000000000000000000000000000000000, [], [], [], 3, 0, 0x0004000000000000000000000000000000000000000000000000000000000000), (((0, 0x0000000000000000000000000000000000000000), 0, 0), 0x0000000000000000000000000000000000000000, [], [], [], 3, 0, 0x0004000000000000000000000000000000000000000000000000000000000000)]",
        "[]",
        "[0x5992Fe461F81C8E0aFFA95b831E50e9b3854BA0E, 0xf315B9006C20913D6D8498BDf657E778d4Ddf2c4]",
        "0x7851990E0005d7931caAcD9c8b681B4eF7490062"
      ],
      "transaction": {
        "type": "0x02",
        "from": "0x5992fe461f81c8e0affa95b831e50e9b3854ba0e",
        "to": "0x7edb762bb3e7a7402bb3cd8dfaeb04fe15ab0829",
        "gas": "0x875f5",
        "value": "0x0",
        "data": "0x6b090f8c0000000000000000000000000000000000000000000000000000000000000080000000000000000000000000000000000000000000000000000000000000046000000000000000000000000000000000000000000000000000000000000004800000000000000000000000007851990e0005d7931caacd9c8b681b4ef7490062000000000000000000000000000000000000000000000000000000000000000200000000000000000000000000000000000000000000000000000000000000400000000000000000000000000000000000000000000000000000000000000200000000000000000000000000000000000000000000000000000000000000000000000000000000000000000000000000000000000000000000000000000000000000000000000000000000000000000000000000000000000000000000000000000000000000000000000000000000000000000000000000000000000000000000000000000000000000000000000000000000000000000000000000000000000000000000000000000000000000000000000000000000000000000000000160000000000000000000000000000000000000000000000000000000000000018000000000000000000000000000000000000000000000000000000000000001a0000000000000000000000000000000000000000000000000000000000000000300000000000000000000000000000000000000000000000000000000000000000004000000000000000000000000000000000000000000000000000000000000000000000000000000000000000000000000000000000000000000000000000000000000000000000000000000000000000000000000000000000000000000000000000000000000000000000000000000000000000000000000000000000000000000000000000000000000000000000000000000000000000000000000000000000000000000000000000000000000000000000000000000000000000000000000000000000000000000000000000000000000000000000000000000000000000000000000000000000000000000000000000000000000000000000000000000000000000000000000000000000000000000000000000000000000000000000000000000000000000000000000000000000000000000000000000000000160000000000000000000000000000000000000000000000000000000000000018000000000000000000000000000000000000000000000000000000000000001a0000000000000000000000000000000000000000000000000000000000000000300000000000000000000000000000000000000000000000000000000000000000004000000000000000000000000000000000000000000000000000000000000000000000000000000000000000000000000000000000000000000000000000000000000000000000000000000000000000000000000000000000000000000000000000000000000000000000000000000000000000000000000000000000000000000000000000000000000000000000000000000000000000000000000000000000000000000000000000000000000000000000000000000000000000000020000000000000000000000005992fe461f81c8e0affa95b831e50e9b3854ba0e000000000000000000000000f315b9006c20913d6d8498bdf657e778d4ddf2c4",
        "nonce": "0x39d",
        "accessList": []
      },
      "additionalContracts": [],
      "isFixedGasLimit": false
    }
  ],
  "receipts": [
    {
      "transactionHash": "0x8d48559d44afe3f4ae4e89222901e85b6180d6e0b73e9c815af99d5b4d5a8db8",
      "transactionIndex": "0xc",
      "blockHash": "0x4dad9302c68d4af724885e5839ee6a60b2add8e64a9db9508cdb4d668835b192",
      "blockNumber": "0x56d4e2",
      "from": "0x5992Fe461F81C8E0aFFA95b831E50e9b3854BA0E",
      "to": "0x7EdB762bb3E7a7402Bb3Cd8DFAEb04Fe15ab0829",
      "cumulativeGasUsed": "0xd362a",
      "gasUsed": "0x6201e",
      "contractAddress": null,
      "logs": [
        {
          "address": "0x7851990E0005d7931caAcD9c8b681B4eF7490062",
          "topics": [
            "0xddf252ad1be2c89b69c2b068fc378daa952ba7f163c4a11628f55a4df523b3ef",
            "0x0000000000000000000000000000000000000000000000000000000000000000",
            "0x0000000000000000000000005992fe461f81c8e0affa95b831e50e9b3854ba0e",
            "0x0000000000000000000000000000000000000000000000000000000000000000"
          ],
          "data": "0x",
          "blockHash": "0x4dad9302c68d4af724885e5839ee6a60b2add8e64a9db9508cdb4d668835b192",
          "blockNumber": "0x56d4e2",
          "transactionHash": "0x8d48559d44afe3f4ae4e89222901e85b6180d6e0b73e9c815af99d5b4d5a8db8",
          "transactionIndex": "0xc",
          "logIndex": "0x7",
          "removed": false
        },
        {
          "address": "0x7EdB762bb3E7a7402Bb3Cd8DFAEb04Fe15ab0829",
          "topics": [
            "0xa90a3b8dae41ae10a708d32fec7bf12da5c90879c98b9c4cca3c8fba91ddf493",
            "0x0000000000000000000000000000000000000000000000000000000000000000",
            "0x0000000000000000000000007851990e0005d7931caacd9c8b681b4ef7490062",
            "0x0000000000000000000000000000000000000000000000000000000000000000"
          ],
          "data": "0x00000000000000000000000000000000000000000000000000000000000000000000000000000000000000005992fe461f81c8e0affa95b831e50e9b3854ba0e00000000000000000000000000000000000000000000000000000000000000000004000000000000000000000000000000000000000000000000000000000000",
          "blockHash": "0x4dad9302c68d4af724885e5839ee6a60b2add8e64a9db9508cdb4d668835b192",
          "blockNumber": "0x56d4e2",
          "transactionHash": "0x8d48559d44afe3f4ae4e89222901e85b6180d6e0b73e9c815af99d5b4d5a8db8",
          "transactionIndex": "0xc",
          "logIndex": "0x8",
          "removed": false
        },
        {
          "address": "0x7851990E0005d7931caAcD9c8b681B4eF7490062",
          "topics": [
            "0xddf252ad1be2c89b69c2b068fc378daa952ba7f163c4a11628f55a4df523b3ef",
            "0x0000000000000000000000000000000000000000000000000000000000000000",
            "0x000000000000000000000000f315b9006c20913d6d8498bdf657e778d4ddf2c4",
            "0x0000000000000000000000000000000000000000000000000000000000000001"
          ],
          "data": "0x",
          "blockHash": "0x4dad9302c68d4af724885e5839ee6a60b2add8e64a9db9508cdb4d668835b192",
          "blockNumber": "0x56d4e2",
          "transactionHash": "0x8d48559d44afe3f4ae4e89222901e85b6180d6e0b73e9c815af99d5b4d5a8db8",
          "transactionIndex": "0xc",
          "logIndex": "0x9",
          "removed": false
        },
        {
          "address": "0x7EdB762bb3E7a7402Bb3Cd8DFAEb04Fe15ab0829",
          "topics": [
            "0xa90a3b8dae41ae10a708d32fec7bf12da5c90879c98b9c4cca3c8fba91ddf493",
            "0x0000000000000000000000000000000000000000000000000000000000000000",
            "0x0000000000000000000000007851990e0005d7931caacd9c8b681b4ef7490062",
            "0x0000000000000000000000000000000000000000000000000000000000000000"
          ],
          "data": "0x0000000000000000000000000000000000000000000000000000000000000001000000000000000000000000f315b9006c20913d6d8498bdf657e778d4ddf2c400000000000000000000000000000000000000000000000000000000000000000004000000000000000000000000000000000000000000000000000000000000",
          "blockHash": "0x4dad9302c68d4af724885e5839ee6a60b2add8e64a9db9508cdb4d668835b192",
          "blockNumber": "0x56d4e2",
          "transactionHash": "0x8d48559d44afe3f4ae4e89222901e85b6180d6e0b73e9c815af99d5b4d5a8db8",
          "transactionIndex": "0xc",
          "logIndex": "0xa",
          "removed": false
        }
      ],
      "status": "0x1",
      "logsBloom": "0x000000000002000000000000000000000000000100000010000000080000000000000000000000000000000000000000000000000000000000000000000400000000000000000000000000080040000000000000000c0000000000000000000000000000020000000000000000000800000000000040000000000010000000000000000800400000000000000000000000000000000000800000000000004000000000000000000000000000000000000100000000100000040001000000000000008082000000000000000000000000000000000001000000000000000060000000000000000000000000000000000000000000000000000000000000000000",
      "type": "0x2",
      "effectiveGasPrice": "0xb2d6bc96"
    }
  ],
  "libraries": [],
  "pending": [],
  "returns": {},
  "timestamp": 1713029425,
  "chain": 11155111,
  "commit": "9973607"
}