{
  "transactions": [
    {
      "hash": "0xe2ffcd9a149e01f4d0ebff35a2f7625ade7c393313939773ad2723e6ea5795f3",
      "transactionType": "CALL",
      "contractName": null,
      "contractAddress": "0x5dB9f4C9239345308614604e69258C0bba9b437f",
      "function": "approve(address,uint256)",
      "arguments": [
        "0x518d6a37493AF5917DAbECe74F41cc6697EbE831",
        "20000000000000000000"
      ],
      "transaction": {
        "type": "0x02",
        "from": "0x5992fe461f81c8e0affa95b831e50e9b3854ba0e",
        "to": "0x5db9f4c9239345308614604e69258c0bba9b437f",
        "gas": "0xf99d",
        "value": "0x0",
        "data": "0x095ea7b3000000000000000000000000518d6a37493af5917dabece74f41cc6697ebe831000000000000000000000000000000000000000000000001158e460913d00000",
        "nonce": "0x3bb",
        "accessList": []
      },
      "additionalContracts": [],
      "isFixedGasLimit": false
    },
    {
      "hash": "0x6e9e0fc2e40f05ce2385aa14b46e231606cfc85b1163de150062de2d24185d00",
      "transactionType": "CALL",
      "contractName": null,
      "contractAddress": "0x518d6a37493AF5917DAbECe74F41cc6697EbE831",
      "function": "wrapBatch((((uint8,address),uint256,uint256),address,(bytes1,uint256,address)[],(bytes1,uint256)[],(address,uint16)[],uint8,uint256,bytes2)[],((uint8,address),uint256,uint256)[],address[],address)",
      "arguments": [
        "[(((0, 0x0000000000000000000000000000000000000000), 0, 0), 0x0000000000000000000000000000000000000000, [], [], [], 3, 0, 0x0000000000000000000000000000000000000000000000000000000000000000), (((0, 0x0000000000000000000000000000000000000000), 0, 0), 0x0000000000000000000000000000000000000000, [], [], [], 3, 0, 0x0000000000000000000000000000000000000000000000000000000000000000)]",
        "[((2, 0x5dB9f4C9239345308614604e69258C0bba9b437f), 0, 10000000000000000000)]",
        "[0x5992Fe461F81C8E0aFFA95b831E50e9b3854BA0E, 0xf315B9006C20913D6D8498BDf657E778d4Ddf2c4]",
        "0xFdB40F8C6DAA7f1d934C6877BD03980C86055E3f"
      ],
      "transaction": {
        "type": "0x02",
        "from": "0x5992fe461f81c8e0affa95b831e50e9b3854ba0e",
        "to": "0x518d6a37493af5917dabece74f41cc6697ebe831",
        "gas": "0xc8b92",
        "value": "0x0",
        "data": "0x6b090f8c000000000000000000000000000000000000000000000000000000000000008000000000000000000000000000000000000000000000000000000000000004600000000000000000000000000000000000000000000000000000000000000500000000000000000000000000fdb40f8c6daa7f1d934c6877bd03980c86055e3f000000000000000000000000000000000000000000000000000000000000000200000000000000000000000000000000000000000000000000000000000000400000000000000000000000000000000000000000000000000000000000000200000000000000000000000000000000000000000000000000000000000000000000000000000000000000000000000000000000000000000000000000000000000000000000000000000000000000000000000000000000000000000000000000000000000000000000000000000000000000000000000000000000000000000000000000000000000000000000000000000000000000000000000000000000000000000000000000000000000000000000000000000000000000000000000160000000000000000000000000000000000000000000000000000000000000018000000000000000000000000000000000000000000000000000000000000001a0000000000000000000000000000000000000000000000000000000000000000300000000000000000000000000000000000000000000000000000000000000000000000000000000000000000000000000000000000000000000000000000000000000000000000000000000000000000000000000000000000000000000000000000000000000000000000000000000000000000000000000000000000000000000000000000000000000000000000000000000000000000000000000000000000000000000000000000000000000000000000000000000000000000000000000000000000000000000000000000000000000000000000000000000000000000000000000000000000000000000000000000000000000000000000000000000000000000000000000000000000000000000000000000000000000000000000000000000000000000000000000000000000000000000000000000000000000000000000000000000000000000000000000000000000000000000000000000160000000000000000000000000000000000000000000000000000000000000018000000000000000000000000000000000000000000000000000000000000001a0000000000000000000000000000000000000000000000000000000000000000300000000000000000000000000000000000000000000000000000000000000000000000000000000000000000000000000000000000000000000000000000000000000000000000000000000000000000000000000000000000000000000000000000000000000000000000000000000000000000000000000000000000000000000000000000000000000000000000000000000000000000000000000000000000000000000000000000000000000000000000000000000000000000000000100000000000000000000000000000000000000000000000000000000000000020000000000000000000000005db9f4c9239345308614604e69258c0bba9b437f00000000000000000000000000000000000000000000000000000000000000000000000000000000000000000000000000000000000000008ac7230489e8000000000000000000000000000000000000000000000000000000000000000000020000000000000000000000005992fe461f81c8e0affa95b831e50e9b3854ba0e000000000000000000000000f315b9006c20913d6d8498bdf657e778d4ddf2c4",
        "nonce": "0x3bc",
        "accessList": []
      },
      "additionalContracts": [],
      "isFixedGasLimit": false
    }
  ],
  "receipts": [
    {
      "transactionHash": "0xe2ffcd9a149e01f4d0ebff35a2f7625ade7c393313939773ad2723e6ea5795f3",
      "transactionIndex": "0xd",
      "blockHash": "0x30702874a063aac12d5709cd886826e5474a2d5a4261990a0804aff2cf33d7a1",
      "blockNumber": "0x575cc7",
      "from": "0x5992Fe461F81C8E0aFFA95b831E50e9b3854BA0E",
      "to": "0x5dB9f4C9239345308614604e69258C0bba9b437f",
      "cumulativeGasUsed": "0x13362f",
      "gasUsed": "0xb4b8",
      "contractAddress": null,
      "logs": [
        {
          "address": "0x5dB9f4C9239345308614604e69258C0bba9b437f",
          "topics": [
            "0x8c5be1e5ebec7d5bd14f71427d1e84f3dd0314c0f7b2291e5b200ac8c7c3b925",
            "0x0000000000000000000000005992fe461f81c8e0affa95b831e50e9b3854ba0e",
            "0x000000000000000000000000518d6a37493af5917dabece74f41cc6697ebe831"
          ],
          "data": "0x000000000000000000000000000000000000000000000001158e460913d00000",
          "blockHash": "0x30702874a063aac12d5709cd886826e5474a2d5a4261990a0804aff2cf33d7a1",
          "blockNumber": "0x575cc7",
          "transactionHash": "0xe2ffcd9a149e01f4d0ebff35a2f7625ade7c393313939773ad2723e6ea5795f3",
          "transactionIndex": "0xd",
          "logIndex": "0x15",
          "removed": false
        }
      ],
      "status": "0x1",
      "logsBloom": "0x00000000000000000000000000000000000000000020000000000000000000000000000000000000000200000000000000000000000000000000000000200000000000000000000000000000000000000000000000000000000000000000000000000000000000000020000000000000000000000000000000000000000000000000000800000000000000000000000000000000000000000000000000004000020000000000000000000000000000000000100000000000040000000000000000000000000000000000000000000000000000000400000000000000000000001010000000000000000000000000000000000000000000000000000000000000",
      "type": "0x2",
      "effectiveGasPrice": "0x109c3a0e0"
    },
    {
      "transactionHash": "0x6e9e0fc2e40f05ce2385aa14b46e231606cfc85b1163de150062de2d24185d00",
      "transactionIndex": "0xe",
      "blockHash": "0x30702874a063aac12d5709cd886826e5474a2d5a4261990a0804aff2cf33d7a1",
      "blockNumber": "0x575cc7",
      "from": "0x5992Fe461F81C8E0aFFA95b831E50e9b3854BA0E",
      "to": "0x518d6a37493AF5917DAbECe74F41cc6697EbE831",
      "cumulativeGasUsed": "0x1bca22",
      "gasUsed": "0x893f3",
      "contractAddress": null,
      "logs": [
        {
          "address": "0xFdB40F8C6DAA7f1d934C6877BD03980C86055E3f",
          "topics": [
            "0xddf252ad1be2c89b69c2b068fc378daa952ba7f163c4a11628f55a4df523b3ef",
            "0x0000000000000000000000000000000000000000000000000000000000000000",
            "0x0000000000000000000000005992fe461f81c8e0affa95b831e50e9b3854ba0e",
            "0x0000000000000000000000000000000000000000000000000000000000000002"
          ],
          "data": "0x",
          "blockHash": "0x30702874a063aac12d5709cd886826e5474a2d5a4261990a0804aff2cf33d7a1",
          "blockNumber": "0x575cc7",
          "transactionHash": "0x6e9e0fc2e40f05ce2385aa14b46e231606cfc85b1163de150062de2d24185d00",
          "transactionIndex": "0xe",
          "logIndex": "0x16",
          "removed": false
        },
        {
          "address": "0x518d6a37493AF5917DAbECe74F41cc6697EbE831",
          "topics": [
            "0xf3d1350815c4f9db2be36c35f840bfb002835a83ff1c3d8f3a217b1e6227d5aa",
            "0x000000000000000000000000fdb40f8c6daa7f1d934c6877bd03980c86055e3f",
            "0x0000000000000000000000000000000000000000000000000000000000000002"
          ],
          "data": "0x00000000000000000000000000000000000000000000000000000000000000020000000000000000000000005db9f4c9239345308614604e69258c0bba9b437f00000000000000000000000000000000000000000000000000000000000000000000000000000000000000000000000000000000000000008ac7230489e80000",
          "blockHash": "0x30702874a063aac12d5709cd886826e5474a2d5a4261990a0804aff2cf33d7a1",
          "blockNumber": "0x575cc7",
          "transactionHash": "0x6e9e0fc2e40f05ce2385aa14b46e231606cfc85b1163de150062de2d24185d00",
          "transactionIndex": "0xe",
          "logIndex": "0x17",
          "removed": false
        },
        {
          "address": "0x518d6a37493AF5917DAbECe74F41cc6697EbE831",
          "topics": [
            "0xa90a3b8dae41ae10a708d32fec7bf12da5c90879c98b9c4cca3c8fba91ddf493",
            "0x0000000000000000000000000000000000000000000000000000000000000000",
            "0x000000000000000000000000fdb40f8c6daa7f1d934c6877bd03980c86055e3f",
            "0x0000000000000000000000000000000000000000000000000000000000000000"
          ],
          "data": "0x00000000000000000000000000000000000000000000000000000000000000020000000000000000000000005992fe461f81c8e0affa95b831e50e9b3854ba0e00000000000000000000000000000000000000000000000000000000000000000000000000000000000000000000000000000000000000000000000000000000",
          "blockHash": "0x30702874a063aac12d5709cd886826e5474a2d5a4261990a0804aff2cf33d7a1",
          "blockNumber": "0x575cc7",
          "transactionHash": "0x6e9e0fc2e40f05ce2385aa14b46e231606cfc85b1163de150062de2d24185d00",
          "transactionIndex": "0xe",
          "logIndex": "0x18",
          "removed": false
        },
        {
          "address": "0xFdB40F8C6DAA7f1d934C6877BD03980C86055E3f",
          "topics": [
            "0xddf252ad1be2c89b69c2b068fc378daa952ba7f163c4a11628f55a4df523b3ef",
            "0x0000000000000000000000000000000000000000000000000000000000000000",
            "0x000000000000000000000000f315b9006c20913d6d8498bdf657e778d4ddf2c4",
            "0x0000000000000000000000000000000000000000000000000000000000000003"
          ],
          "data": "0x",
          "blockHash": "0x30702874a063aac12d5709cd886826e5474a2d5a4261990a0804aff2cf33d7a1",
          "blockNumber": "0x575cc7",
          "transactionHash": "0x6e9e0fc2e40f05ce2385aa14b46e231606cfc85b1163de150062de2d24185d00",
          "transactionIndex": "0xe",
          "logIndex": "0x19",
          "removed": false
        },
        {
          "address": "0x518d6a37493AF5917DAbECe74F41cc6697EbE831",
          "topics": [
            "0xf3d1350815c4f9db2be36c35f840bfb002835a83ff1c3d8f3a217b1e6227d5aa",
            "0x000000000000000000000000fdb40f8c6daa7f1d934c6877bd03980c86055e3f",
            "0x0000000000000000000000000000000000000000000000000000000000000003"
          ],
          "data": "0x00000000000000000000000000000000000000000000000000000000000000020000000000000000000000005db9f4c9239345308614604e69258c0bba9b437f00000000000000000000000000000000000000000000000000000000000000000000000000000000000000000000000000000000000000008ac7230489e80000",
          "blockHash": "0x30702874a063aac12d5709cd886826e5474a2d5a4261990a0804aff2cf33d7a1",
          "blockNumber": "0x575cc7",
          "transactionHash": "0x6e9e0fc2e40f05ce2385aa14b46e231606cfc85b1163de150062de2d24185d00",
          "transactionIndex": "0xe",
          "logIndex": "0x1a",
          "removed": false
        },
        {
          "address": "0x518d6a37493AF5917DAbECe74F41cc6697EbE831",
          "topics": [
            "0xa90a3b8dae41ae10a708d32fec7bf12da5c90879c98b9c4cca3c8fba91ddf493",
            "0x0000000000000000000000000000000000000000000000000000000000000000",
            "0x000000000000000000000000fdb40f8c6daa7f1d934c6877bd03980c86055e3f",
            "0x0000000000000000000000000000000000000000000000000000000000000000"
          ],
          "data": "0x0000000000000000000000000000000000000000000000000000000000000003000000000000000000000000f315b9006c20913d6d8498bdf657e778d4ddf2c400000000000000000000000000000000000000000000000000000000000000000000000000000000000000000000000000000000000000000000000000000000",
          "blockHash": "0x30702874a063aac12d5709cd886826e5474a2d5a4261990a0804aff2cf33d7a1",
          "blockNumber": "0x575cc7",
          "transactionHash": "0x6e9e0fc2e40f05ce2385aa14b46e231606cfc85b1163de150062de2d24185d00",
          "transactionIndex": "0xe",
          "logIndex": "0x1b",
          "removed": false
        },
        {
          "address": "0x5dB9f4C9239345308614604e69258C0bba9b437f",
          "topics": [
            "0xddf252ad1be2c89b69c2b068fc378daa952ba7f163c4a11628f55a4df523b3ef",
            "0x0000000000000000000000005992fe461f81c8e0affa95b831e50e9b3854ba0e",
            "0x000000000000000000000000518d6a37493af5917dabece74f41cc6697ebe831"
          ],
          "data": "0x000000000000000000000000000000000000000000000001158e460913d00000",
          "blockHash": "0x30702874a063aac12d5709cd886826e5474a2d5a4261990a0804aff2cf33d7a1",
          "blockNumber": "0x575cc7",
          "transactionHash": "0x6e9e0fc2e40f05ce2385aa14b46e231606cfc85b1163de150062de2d24185d00",
          "transactionIndex": "0xe",
          "logIndex": "0x1c",
          "removed": false
        },
        {
          "address": "0x5dB9f4C9239345308614604e69258C0bba9b437f",
          "topics": [
            "0x8c5be1e5ebec7d5bd14f71427d1e84f3dd0314c0f7b2291e5b200ac8c7c3b925",
            "0x0000000000000000000000005992fe461f81c8e0affa95b831e50e9b3854ba0e",
            "0x000000000000000000000000518d6a37493af5917dabece74f41cc6697ebe831"
          ],
          "data": "0x0000000000000000000000000000000000000000000000000000000000000000",
          "blockHash": "0x30702874a063aac12d5709cd886826e5474a2d5a4261990a0804aff2cf33d7a1",
          "blockNumber": "0x575cc7",
          "transactionHash": "0x6e9e0fc2e40f05ce2385aa14b46e231606cfc85b1163de150062de2d24185d00",
          "transactionIndex": "0xe",
          "logIndex": "0x1d",
          "removed": false
        }
      ],
      "status": "0x1",
      "logsBloom": "0x04000000000200000000000000000000000000000020000000000000000000000000000000000000000200000000000000000000030000000000000000200000000200000000000000000008804001000000000000000000000000000400000000000000020000000020000000000800000000000040000000000010000200000000080800400000000000000000000000000000000000800000000200004000020000000000000000000100000000000000100000800000040000000000400400000082000000000000000000000000000000000400080000000000000020001010000000000000000000000000000000000000008200000000000800000000",
      "type": "0x2",
      "effectiveGasPrice": "0x109c3a0e0"
    }
  ],
  "libraries": [],
  "pending": [],
  "returns": {},
  "timestamp": 1713452142,
  "chain": 11155111,
  "commit": "92da607"
}