{
  "transactions": [
    {
      "hash": "0xf9e12585e105456a915524c7bcd3cc61eff55afe151dfa813c3f58b5860ee88b",
      "transactionType": "CALL",
      "contractName": null,
      "contractAddress": "0x5dB9f4C9239345308614604e69258C0bba9b437f",
      "function": "approve(address,uint256)",
      "arguments": [
        "0x518d6a37493AF5917DAbECe74F41cc6697EbE831",
        "20000000000000000000"
      ],
      "transaction": {
        "type": "0x02",
        "from": "0x5992fe461f81c8e0affa95b831e50e9b3854ba0e",
        "to": "0x5db9f4c9239345308614604e69258c0bba9b437f",
        "gas": "0xf99d",
        "value": "0x0",
        "data": "0x095ea7b3000000000000000000000000518d6a37493af5917dabece74f41cc6697ebe831000000000000000000000000000000000000000000000001158e460913d00000",
        "nonce": "0x3b9",
        "accessList": []
      },
      "additionalContracts": [],
      "isFixedGasLimit": false
    },
    {
      "hash": "0x28ec79406c8b22a79b41fd3a2ccca17ee22af99d9ac76f12eaebc1e003a2e6d6",
      "transactionType": "CALL",
      "contractName": null,
      "contractAddress": "0x518d6a37493AF5917DAbECe74F41cc6697EbE831",
      "function": "wrapBatch((((uint8,address),uint256,uint256),address,(bytes1,uint256,address)[],(bytes1,uint256)[],(address,uint16)[],uint8,uint256,bytes2)[],((uint8,address),uint256,uint256)[],address[],address)",
      "arguments": [
        "[(((0, 0x0000000000000000000000000000000000000000), 0, 0), 0x0000000000000000000000000000000000000000, [], [], [], 3, 0, 0x0004000000000000000000000000000000000000000000000000000000000000), (((0, 0x0000000000000000000000000000000000000000), 0, 0), 0x0000000000000000000000000000000000000000, [], [], [], 3, 0, 0x0004000000000000000000000000000000000000000000000000000000000000)]",
        "[((2, 0x5dB9f4C9239345308614604e69258C0bba9b437f), 0, 10000000000000000000)]",
        "[0x5992Fe461F81C8E0aFFA95b831E50e9b3854BA0E, 0xf315B9006C20913D6D8498BDf657E778d4Ddf2c4]",
        "0xFdB40F8C6DAA7f1d934C6877BD03980C86055E3f"
      ],
      "transaction": {
        "type": "0x02",
        "from": "0x5992fe461f81c8e0affa95b831e50e9b3854ba0e",
        "to": "0x518d6a37493af5917dabece74f41cc6697ebe831",
        "gas": "0xd8fe3",
        "value": "0x0",
        "data": "0x6b090f8c000000000000000000000000000000000000000000000000000000000000008000000000000000000000000000000000000000000000000000000000000004600000000000000000000000000000000000000000000000000000000000000500000000000000000000000000fdb40f8c6daa7f1d934c6877bd03980c86055e3f000000000000000000000000000000000000000000000000000000000000000200000000000000000000000000000000000000000000000000000000000000400000000000000000000000000000000000000000000000000000000000000200000000000000000000000000000000000000000000000000000000000000000000000000000000000000000000000000000000000000000000000000000000000000000000000000000000000000000000000000000000000000000000000000000000000000000000000000000000000000000000000000000000000000000000000000000000000000000000000000000000000000000000000000000000000000000000000000000000000000000000000000000000000000000000000160000000000000000000000000000000000000000000000000000000000000018000000000000000000000000000000000000000000000000000000000000001a0000000000000000000000000000000000000000000000000000000000000000300000000000000000000000000000000000000000000000000000000000000000004000000000000000000000000000000000000000000000000000000000000000000000000000000000000000000000000000000000000000000000000000000000000000000000000000000000000000000000000000000000000000000000000000000000000000000000000000000000000000000000000000000000000000000000000000000000000000000000000000000000000000000000000000000000000000000000000000000000000000000000000000000000000000000000000000000000000000000000000000000000000000000000000000000000000000000000000000000000000000000000000000000000000000000000000000000000000000000000000000000000000000000000000000000000000000000000000000000000000000000000000000000000000000000000000000000000160000000000000000000000000000000000000000000000000000000000000018000000000000000000000000000000000000000000000000000000000000001a0000000000000000000000000000000000000000000000000000000000000000300000000000000000000000000000000000000000000000000000000000000000004000000000000000000000000000000000000000000000000000000000000000000000000000000000000000000000000000000000000000000000000000000000000000000000000000000000000000000000000000000000000000000000000000000000000000000000000000000000000000000000000000000000000000000000000000000000000000000000000000000000000000000000000000100000000000000000000000000000000000000000000000000000000000000020000000000000000000000005db9f4c9239345308614604e69258c0bba9b437f00000000000000000000000000000000000000000000000000000000000000000000000000000000000000000000000000000000000000008ac7230489e8000000000000000000000000000000000000000000000000000000000000000000020000000000000000000000005992fe461f81c8e0affa95b831e50e9b3854ba0e000000000000000000000000f315b9006c20913d6d8498bdf657e778d4ddf2c4",
        "nonce": "0x3ba",
        "accessList": []
      },
      "additionalContracts": [],
      "isFixedGasLimit": false
    }
  ],
  "receipts": [
    {
      "transactionHash": "0xf9e12585e105456a915524c7bcd3cc61eff55afe151dfa813c3f58b5860ee88b",
      "transactionIndex": "0x15",
      "blockHash": "0x079b44b92f21a73a0fcb9393eee408bce81f92bdce0f6e624ec5e01f2087f823",
      "blockNumber": "0x575cb8",
      "from": "0x5992Fe461F81C8E0aFFA95b831E50e9b3854BA0E",
      "to": "0x5dB9f4C9239345308614604e69258C0bba9b437f",
      "cumulativeGasUsed": "0x9deff",
      "gasUsed": "0xb4b8",
      "contractAddress": null,
      "logs": [
        {
          "address": "0x5dB9f4C9239345308614604e69258C0bba9b437f",
          "topics": [
            "0x8c5be1e5ebec7d5bd14f71427d1e84f3dd0314c0f7b2291e5b200ac8c7c3b925",
            "0x0000000000000000000000005992fe461f81c8e0affa95b831e50e9b3854ba0e",
            "0x000000000000000000000000518d6a37493af5917dabece74f41cc6697ebe831"
          ],
          "data": "0x000000000000000000000000000000000000000000000001158e460913d00000",
          "blockHash": "0x079b44b92f21a73a0fcb9393eee408bce81f92bdce0f6e624ec5e01f2087f823",
          "blockNumber": "0x575cb8",
          "transactionHash": "0xf9e12585e105456a915524c7bcd3cc61eff55afe151dfa813c3f58b5860ee88b",
          "transactionIndex": "0x15",
          "logIndex": "0x5",
          "removed": false
        }
      ],
      "status": "0x1",
      "logsBloom": "0x00000000000000000000000000000000000000000020000000000000000000000000000000000000000200000000000000000000000000000000000000200000000000000000000000000000000000000000000000000000000000000000000000000000000000000020000000000000000000000000000000000000000000000000000800000000000000000000000000000000000000000000000000004000020000000000000000000000000000000000100000000000040000000000000000000000000000000000000000000000000000000400000000000000000000001010000000000000000000000000000000000000000000000000000000000000",
      "type": "0x2",
      "effectiveGasPrice": "0x14deee082"
    },
    {
      "transactionHash": "0x28ec79406c8b22a79b41fd3a2ccca17ee22af99d9ac76f12eaebc1e003a2e6d6",
      "transactionIndex": "0x16",
      "blockHash": "0x079b44b92f21a73a0fcb9393eee408bce81f92bdce0f6e624ec5e01f2087f823",
      "blockNumber": "0x575cb8",
      "from": "0x5992Fe461F81C8E0aFFA95b831E50e9b3854BA0E",
      "to": "0x518d6a37493AF5917DAbECe74F41cc6697EbE831",
      "cumulativeGasUsed": "0x1324f0",
      "gasUsed": "0x945f1",
      "contractAddress": null,
      "logs": [
        {
          "address": "0xFdB40F8C6DAA7f1d934C6877BD03980C86055E3f",
          "topics": [
            "0xddf252ad1be2c89b69c2b068fc378daa952ba7f163c4a11628f55a4df523b3ef",
            "0x0000000000000000000000000000000000000000000000000000000000000000",
            "0x0000000000000000000000005992fe461f81c8e0affa95b831e50e9b3854ba0e",
            "0x0000000000000000000000000000000000000000000000000000000000000000"
          ],
          "data": "0x",
          "blockHash": "0x079b44b92f21a73a0fcb9393eee408bce81f92bdce0f6e624ec5e01f2087f823",
          "blockNumber": "0x575cb8",
          "transactionHash": "0x28ec79406c8b22a79b41fd3a2ccca17ee22af99d9ac76f12eaebc1e003a2e6d6",
          "transactionIndex": "0x16",
          "logIndex": "0x6",
          "removed": false
        },
        {
          "address": "0x518d6a37493AF5917DAbECe74F41cc6697EbE831",
          "topics": [
            "0xf3d1350815c4f9db2be36c35f840bfb002835a83ff1c3d8f3a217b1e6227d5aa",
            "0x000000000000000000000000fdb40f8c6daa7f1d934c6877bd03980c86055e3f",
            "0x0000000000000000000000000000000000000000000000000000000000000000"
          ],
          "data": "0x00000000000000000000000000000000000000000000000000000000000000020000000000000000000000005db9f4c9239345308614604e69258c0bba9b437f00000000000000000000000000000000000000000000000000000000000000000000000000000000000000000000000000000000000000008ac7230489e80000",
          "blockHash": "0x079b44b92f21a73a0fcb9393eee408bce81f92bdce0f6e624ec5e01f2087f823",
          "blockNumber": "0x575cb8",
          "transactionHash": "0x28ec79406c8b22a79b41fd3a2ccca17ee22af99d9ac76f12eaebc1e003a2e6d6",
          "transactionIndex": "0x16",
          "logIndex": "0x7",
          "removed": false
        },
        {
          "address": "0x518d6a37493AF5917DAbECe74F41cc6697EbE831",
          "topics": [
            "0xa90a3b8dae41ae10a708d32fec7bf12da5c90879c98b9c4cca3c8fba91ddf493",
            "0x0000000000000000000000000000000000000000000000000000000000000000",
            "0x000000000000000000000000fdb40f8c6daa7f1d934c6877bd03980c86055e3f",
            "0x0000000000000000000000000000000000000000000000000000000000000000"
          ],
          "data": "0x00000000000000000000000000000000000000000000000000000000000000000000000000000000000000005992fe461f81c8e0affa95b831e50e9b3854ba0e00000000000000000000000000000000000000000000000000000000000000000004000000000000000000000000000000000000000000000000000000000000",
          "blockHash": "0x079b44b92f21a73a0fcb9393eee408bce81f92bdce0f6e624ec5e01f2087f823",
          "blockNumber": "0x575cb8",
          "transactionHash": "0x28ec79406c8b22a79b41fd3a2ccca17ee22af99d9ac76f12eaebc1e003a2e6d6",
          "transactionIndex": "0x16",
          "logIndex": "0x8",
          "removed": false
        },
        {
          "address": "0xFdB40F8C6DAA7f1d934C6877BD03980C86055E3f",
          "topics": [
            "0xddf252ad1be2c89b69c2b068fc378daa952ba7f163c4a11628f55a4df523b3ef",
            "0x0000000000000000000000000000000000000000000000000000000000000000",
            "0x000000000000000000000000f315b9006c20913d6d8498bdf657e778d4ddf2c4",
            "0x0000000000000000000000000000000000000000000000000000000000000001"
          ],
          "data": "0x",
          "blockHash": "0x079b44b92f21a73a0fcb9393eee408bce81f92bdce0f6e624ec5e01f2087f823",
          "blockNumber": "0x575cb8",
          "transactionHash": "0x28ec79406c8b22a79b41fd3a2ccca17ee22af99d9ac76f12eaebc1e003a2e6d6",
          "transactionIndex": "0x16",
          "logIndex": "0x9",
          "removed": false
        },
        {
          "address": "0x518d6a37493AF5917DAbECe74F41cc6697EbE831",
          "topics": [
            "0xf3d1350815c4f9db2be36c35f840bfb002835a83ff1c3d8f3a217b1e6227d5aa",
            "0x000000000000000000000000fdb40f8c6daa7f1d934c6877bd03980c86055e3f",
            "0x0000000000000000000000000000000000000000000000000000000000000001"
          ],
          "data": "0x00000000000000000000000000000000000000000000000000000000000000020000000000000000000000005db9f4c9239345308614604e69258c0bba9b437f00000000000000000000000000000000000000000000000000000000000000000000000000000000000000000000000000000000000000008ac7230489e80000",
          "blockHash": "0x079b44b92f21a73a0fcb9393eee408bce81f92bdce0f6e624ec5e01f2087f823",
          "blockNumber": "0x575cb8",
          "transactionHash": "0x28ec79406c8b22a79b41fd3a2ccca17ee22af99d9ac76f12eaebc1e003a2e6d6",
          "transactionIndex": "0x16",
          "logIndex": "0xa",
          "removed": false
        },
        {
          "address": "0x518d6a37493AF5917DAbECe74F41cc6697EbE831",
          "topics": [
            "0xa90a3b8dae41ae10a708d32fec7bf12da5c90879c98b9c4cca3c8fba91ddf493",
            "0x0000000000000000000000000000000000000000000000000000000000000000",
            "0x000000000000000000000000fdb40f8c6daa7f1d934c6877bd03980c86055e3f",
            "0x0000000000000000000000000000000000000000000000000000000000000000"
          ],
          "data": "0x0000000000000000000000000000000000000000000000000000000000000001000000000000000000000000f315b9006c20913d6d8498bdf657e778d4ddf2c400000000000000000000000000000000000000000000000000000000000000000004000000000000000000000000000000000000000000000000000000000000",
          "blockHash": "0x079b44b92f21a73a0fcb9393eee408bce81f92bdce0f6e624ec5e01f2087f823",
          "blockNumber": "0x575cb8",
          "transactionHash": "0x28ec79406c8b22a79b41fd3a2ccca17ee22af99d9ac76f12eaebc1e003a2e6d6",
          "transactionIndex": "0x16",
          "logIndex": "0xb",
          "removed": false
        },
        {
          "address": "0x5dB9f4C9239345308614604e69258C0bba9b437f",
          "topics": [
            "0xddf252ad1be2c89b69c2b068fc378daa952ba7f163c4a11628f55a4df523b3ef",
            "0x0000000000000000000000005992fe461f81c8e0affa95b831e50e9b3854ba0e",
            "0x000000000000000000000000518d6a37493af5917dabece74f41cc6697ebe831"
          ],
          "data": "0x000000000000000000000000000000000000000000000001158e460913d00000",
          "blockHash": "0x079b44b92f21a73a0fcb9393eee408bce81f92bdce0f6e624ec5e01f2087f823",
          "blockNumber": "0x575cb8",
          "transactionHash": "0x28ec79406c8b22a79b41fd3a2ccca17ee22af99d9ac76f12eaebc1e003a2e6d6",
          "transactionIndex": "0x16",
          "logIndex": "0xc",
          "removed": false
        },
        {
          "address": "0x5dB9f4C9239345308614604e69258C0bba9b437f",
          "topics": [
            "0x8c5be1e5ebec7d5bd14f71427d1e84f3dd0314c0f7b2291e5b200ac8c7c3b925",
            "0x0000000000000000000000005992fe461f81c8e0affa95b831e50e9b3854ba0e",
            "0x000000000000000000000000518d6a37493af5917dabece74f41cc6697ebe831"
          ],
          "data": "0x0000000000000000000000000000000000000000000000000000000000000000",
          "blockHash": "0x079b44b92f21a73a0fcb9393eee408bce81f92bdce0f6e624ec5e01f2087f823",
          "blockNumber": "0x575cb8",
          "transactionHash": "0x28ec79406c8b22a79b41fd3a2ccca17ee22af99d9ac76f12eaebc1e003a2e6d6",
          "transactionIndex": "0x16",
          "logIndex": "0xd",
          "removed": false
        }
      ],
      "status": "0x1",
      "logsBloom": "0x00000000000200000000000000000000000000000020000000000000000000000000000000000000000200000000000000000000010000000000000000240000000200000000000000000008804001000000000000040000000000000400000000000000020000000020000000000800000000000040000000000010000200000000080800400000000000000000000000000000000000800000000200004000020000000000000000000000000000000000100000000000040000000000000400000082000000000000000000000000000000000400080000000000000060001010000000000000000000000000000000000000000200000000000800000000",
      "type": "0x2",
      "effectiveGasPrice": "0x14deee082"
    }
  ],
  "libraries": [],
  "pending": [],
  "returns": {},
  "timestamp": 1713451963,
  "chain": 11155111,
  "commit": "92da607"
}