{
  "transactions": [
    {
      "hash": "0xf4c6cdd8d51878d4f096deeba9fb09da81d6c2be81ee3c4bf800bb40bf7658d7",
      "transactionType": "CALL",
      "contractName": null,
      "contractAddress": "0x7EdB762bb3E7a7402Bb3Cd8DFAEb04Fe15ab0829",
      "function": "wrapBatch((((uint8,address),uint256,uint256),address,(bytes1,uint256,address)[],(bytes1,uint256)[],(address,uint16)[],uint8,uint256,bytes2)[],((uint8,address),uint256,uint256)[],address[],address)",
      "arguments": [
        "[(((0, 0x0000000000000000000000000000000000000000), 0, 0), 0x0000000000000000000000000000000000000000, [], [], [], 3, 0, 0x0004000000000000000000000000000000000000000000000000000000000000), (((0, 0x0000000000000000000000000000000000000000), 0, 0), 0x0000000000000000000000000000000000000000, [], [], [], 3, 0, 0x0004000000000000000000000000000000000000000000000000000000000000)]",
        "[]",
        "[0x5992Fe461F81C8E0aFFA95b831E50e9b3854BA0E, 0xf315B9006C20913D6D8498BDf657E778d4Ddf2c4]",
        "0x7851990E0005d7931caAcD9c8b681B4eF7490062"
      ],
      "transaction": {
        "type": "0x02",
        "from": "0x5992fe461f81c8e0affa95b831e50e9b3854ba0e",
        "to": "0x7edb762bb3e7a7402bb3cd8dfaeb04fe15ab0829",
        "gas": "0x945ec",
        "value": "0x0",
        "data": "0x6b090f8c0000000000000000000000000000000000000000000000000000000000000080000000000000000000000000000000000000000000000000000000000000046000000000000000000000000000000000000000000000000000000000000004800000000000000000000000007851990e0005d7931caacd9c8b681b4ef7490062000000000000000000000000000000000000000000000000000000000000000200000000000000000000000000000000000000000000000000000000000000400000000000000000000000000000000000000000000000000000000000000200000000000000000000000000000000000000000000000000000000000000000000000000000000000000000000000000000000000000000000000000000000000000000000000000000000000000000000000000000000000000000000000000000000000000000000000000000000000000000000000000000000000000000000000000000000000000000000000000000000000000000000000000000000000000000000000000000000000000000000000000000000000000000000000160000000000000000000000000000000000000000000000000000000000000018000000000000000000000000000000000000000000000000000000000000001a0000000000000000000000000000000000000000000000000000000000000000300000000000000000000000000000000000000000000000000000000000000000004000000000000000000000000000000000000000000000000000000000000000000000000000000000000000000000000000000000000000000000000000000000000000000000000000000000000000000000000000000000000000000000000000000000000000000000000000000000000000000000000000000000000000000000000000000000000000000000000000000000000000000000000000000000000000000000000000000000000000000000000000000000000000000000000000000000000000000000000000000000000000000000000000000000000000000000000000000000000000000000000000000000000000000000000000000000000000000000000000000000000000000000000000000000000000000000000000000000000000000000000000000000000000000000000000000000160000000000000000000000000000000000000000000000000000000000000018000000000000000000000000000000000000000000000000000000000000001a0000000000000000000000000000000000000000000000000000000000000000300000000000000000000000000000000000000000000000000000000000000000004000000000000000000000000000000000000000000000000000000000000000000000000000000000000000000000000000000000000000000000000000000000000000000000000000000000000000000000000000000000000000000000000000000000000000000000000000000000000000000000000000000000000000000000000000000000000000000000000000000000000000000000000000000000000000000000000000000000000000000000000000000000000000000020000000000000000000000005992fe461f81c8e0affa95b831e50e9b3854ba0e000000000000000000000000f315b9006c20913d6d8498bdf657e778d4ddf2c4",
        "nonce": "0x39e",
        "accessList": []
      },
      "additionalContracts": [],
      "isFixedGasLimit": false
    }
  ],
  "receipts": [
    {
      "transactionHash": "0xf4c6cdd8d51878d4f096deeba9fb09da81d6c2be81ee3c4bf800bb40bf7658d7",
      "transactionIndex": "0x6",
      "blockHash": "0xd5ab11152cc134cbe49b5d391f5d9777e3b9b9f8c67107da2881f5c875986e17",
      "blockNumber": "0x56e030",
      "from": "0x5992Fe461F81C8E0aFFA95b831E50e9b3854BA0E",
      "to": "0x7EdB762bb3E7a7402Bb3Cd8DFAEb04Fe15ab0829",
      "cumulativeGasUsed": "0xaa229",
      "gasUsed": "0x65732",
      "contractAddress": null,
      "logs": [
        {
          "address": "0x7851990E0005d7931caAcD9c8b681B4eF7490062",
          "topics": [
            "0xddf252ad1be2c89b69c2b068fc378daa952ba7f163c4a11628f55a4df523b3ef",
            "0x0000000000000000000000000000000000000000000000000000000000000000",
            "0x0000000000000000000000005992fe461f81c8e0affa95b831e50e9b3854ba0e",
            "0x0000000000000000000000000000000000000000000000000000000000000002"
          ],
          "data": "0x",
          "blockHash": "0xd5ab11152cc134cbe49b5d391f5d9777e3b9b9f8c67107da2881f5c875986e17",
          "blockNumber": "0x56e030",
          "transactionHash": "0xf4c6cdd8d51878d4f096deeba9fb09da81d6c2be81ee3c4bf800bb40bf7658d7",
          "transactionIndex": "0x6",
          "logIndex": "0x5",
          "removed": false
        },
        {
          "address": "0x7EdB762bb3E7a7402Bb3Cd8DFAEb04Fe15ab0829",
          "topics": [
            "0xa90a3b8dae41ae10a708d32fec7bf12da5c90879c98b9c4cca3c8fba91ddf493",
            "0x0000000000000000000000000000000000000000000000000000000000000000",
            "0x0000000000000000000000007851990e0005d7931caacd9c8b681b4ef7490062",
            "0x0000000000000000000000000000000000000000000000000000000000000000"
          ],
          "data": "0x00000000000000000000000000000000000000000000000000000000000000020000000000000000000000005992fe461f81c8e0affa95b831e50e9b3854ba0e00000000000000000000000000000000000000000000000000000000000000000004000000000000000000000000000000000000000000000000000000000000",
          "blockHash": "0xd5ab11152cc134cbe49b5d391f5d9777e3b9b9f8c67107da2881f5c875986e17",
          "blockNumber": "0x56e030",
          "transactionHash": "0xf4c6cdd8d51878d4f096deeba9fb09da81d6c2be81ee3c4bf800bb40bf7658d7",
          "transactionIndex": "0x6",
          "logIndex": "0x6",
          "removed": false
        },
        {
          "address": "0x7851990E0005d7931caAcD9c8b681B4eF7490062",
          "topics": [
            "0xddf252ad1be2c89b69c2b068fc378daa952ba7f163c4a11628f55a4df523b3ef",
            "0x0000000000000000000000000000000000000000000000000000000000000000",
            "0x000000000000000000000000f315b9006c20913d6d8498bdf657e778d4ddf2c4",
            "0x0000000000000000000000000000000000000000000000000000000000000003"
          ],
          "data": "0x",
          "blockHash": "0xd5ab11152cc134cbe49b5d391f5d9777e3b9b9f8c67107da2881f5c875986e17",
          "blockNumber": "0x56e030",
          "transactionHash": "0xf4c6cdd8d51878d4f096deeba9fb09da81d6c2be81ee3c4bf800bb40bf7658d7",
          "transactionIndex": "0x6",
          "logIndex": "0x7",
          "removed": false
        },
        {
          "address": "0x7EdB762bb3E7a7402Bb3Cd8DFAEb04Fe15ab0829",
          "topics": [
            "0xa90a3b8dae41ae10a708d32fec7bf12da5c90879c98b9c4cca3c8fba91ddf493",
            "0x0000000000000000000000000000000000000000000000000000000000000000",
            "0x0000000000000000000000007851990e0005d7931caacd9c8b681b4ef7490062",
            "0x0000000000000000000000000000000000000000000000000000000000000000"
          ],
          "data": "0x0000000000000000000000000000000000000000000000000000000000000003000000000000000000000000f315b9006c20913d6d8498bdf657e778d4ddf2c400000000000000000000000000000000000000000000000000000000000000000004000000000000000000000000000000000000000000000000000000000000",
          "blockHash": "0xd5ab11152cc134cbe49b5d391f5d9777e3b9b9f8c67107da2881f5c875986e17",
          "blockNumber": "0x56e030",
          "transactionHash": "0xf4c6cdd8d51878d4f096deeba9fb09da81d6c2be81ee3c4bf800bb40bf7658d7",
          "transactionIndex": "0x6",
          "logIndex": "0x8",
          "removed": false
        }
      ],
      "status": "0x1",
      "logsBloom": "0x04000000000200000000000000000000000000010000001000000008000000000000000000000000000000000000000000000000020000000000000000000000000000000000000000000008004000000000000000080000000000000000000000000000020000000000000000000800000000000040000000000010000000000000000800400000000000000000000000000000000000800000000000004000000000000000000000000100000000000100000000900000040001000000400000008082000000000000000000000000000000000001000000000000000020000000000000000000000000000000000000000000008000000000000000000000",
      "type": "0x2",
      "effectiveGasPrice": "0xb2d4fb0f"
    }
  ],
  "libraries": [],
  "pending": [],
  "returns": {},
  "timestamp": 1713064167,
  "chain": 11155111,
  "commit": "9c5aea1"
}