{
  "transactions": [
    {
      "hash": "0x7d9ece18d2f5926884430f5e729d238174d23d61addd7033c9d57dc462b6d3db",
      "transactionType": "CALL",
      "contractName": null,
      "contractAddress": "0x5dB9f4C9239345308614604e69258C0bba9b437f",
      "function": "approve(address,uint256)",
      "arguments": [
        "0xdfaf9a0cB22275bd7BA2c883fff64919C7930d14",
        "20000000000000000000"
      ],
      "transaction": {
        "type": "0x02",
        "from": "0x5992fe461f81c8e0affa95b831e50e9b3854ba0e",
        "to": "0x5db9f4c9239345308614604e69258c0bba9b437f",
        "gas": "0xf99d",
        "value": "0x0",
        "data": "0x095ea7b3000000000000000000000000dfaf9a0cb22275bd7ba2c883fff64919c7930d14000000000000000000000000000000000000000000000001158e460913d00000",
        "nonce": "0x3aa",
        "accessList": []
      },
      "additionalContracts": [],
      "isFixedGasLimit": false
    },
    {
      "hash": "0xe280a3bfdf3b40e18cc41208aacacee790f6d1741538e668bab3515fdba26e2e",
      "transactionType": "CALL",
      "contractName": null,
      "contractAddress": "0xdfaf9a0cB22275bd7BA2c883fff64919C7930d14",
      "function": "wrapBatch((((uint8,address),uint256,uint256),address,(bytes1,uint256,address)[],(bytes1,uint256)[],(address,uint16)[],uint8,uint256,bytes2)[],((uint8,address),uint256,uint256)[],address[],address)",
      "arguments": [
        "[(((0, 0x0000000000000000000000000000000000000000), 0, 0), 0x0000000000000000000000000000000000000000, [], [], [], 3, 0, 0x0000000000000000000000000000000000000000000000000000000000000000), (((0, 0x0000000000000000000000000000000000000000), 0, 0), 0x0000000000000000000000000000000000000000, [], [], [], 3, 0, 0x0000000000000000000000000000000000000000000000000000000000000000)]",
        "[((2, 0x5dB9f4C9239345308614604e69258C0bba9b437f), 0, 10000000000000000000)]",
        "[0x5992Fe461F81C8E0aFFA95b831E50e9b3854BA0E, 0xf315B9006C20913D6D8498BDf657E778d4Ddf2c4]",
        "0xF30F852991775BC0A9C3880D1Ab9c464DAE7F8F0"
      ],
      "transaction": {
        "type": "0x02",
        "from": "0x5992fe461f81c8e0affa95b831e50e9b3854ba0e",
        "to": "0xdfaf9a0cb22275bd7ba2c883fff64919c7930d14",
        "gas": "0xba770",
        "value": "0x0",
        "data": "0x6b090f8c000000000000000000000000000000000000000000000000000000000000008000000000000000000000000000000000000000000000000000000000000004600000000000000000000000000000000000000000000000000000000000000500000000000000000000000000f30f852991775bc0a9c3880d1ab9c464dae7f8f0000000000000000000000000000000000000000000000000000000000000000200000000000000000000000000000000000000000000000000000000000000400000000000000000000000000000000000000000000000000000000000000200000000000000000000000000000000000000000000000000000000000000000000000000000000000000000000000000000000000000000000000000000000000000000000000000000000000000000000000000000000000000000000000000000000000000000000000000000000000000000000000000000000000000000000000000000000000000000000000000000000000000000000000000000000000000000000000000000000000000000000000000000000000000000000000160000000000000000000000000000000000000000000000000000000000000018000000000000000000000000000000000000000000000000000000000000001a0000000000000000000000000000000000000000000000000000000000000000300000000000000000000000000000000000000000000000000000000000000000000000000000000000000000000000000000000000000000000000000000000000000000000000000000000000000000000000000000000000000000000000000000000000000000000000000000000000000000000000000000000000000000000000000000000000000000000000000000000000000000000000000000000000000000000000000000000000000000000000000000000000000000000000000000000000000000000000000000000000000000000000000000000000000000000000000000000000000000000000000000000000000000000000000000000000000000000000000000000000000000000000000000000000000000000000000000000000000000000000000000000000000000000000000000000000000000000000000000000000000000000000000000000000000000000000000000160000000000000000000000000000000000000000000000000000000000000018000000000000000000000000000000000000000000000000000000000000001a0000000000000000000000000000000000000000000000000000000000000000300000000000000000000000000000000000000000000000000000000000000000000000000000000000000000000000000000000000000000000000000000000000000000000000000000000000000000000000000000000000000000000000000000000000000000000000000000000000000000000000000000000000000000000000000000000000000000000000000000000000000000000000000000000000000000000000000000000000000000000000000000000000000000000000100000000000000000000000000000000000000000000000000000000000000020000000000000000000000005db9f4c9239345308614604e69258c0bba9b437f00000000000000000000000000000000000000000000000000000000000000000000000000000000000000000000000000000000000000008ac7230489e8000000000000000000000000000000000000000000000000000000000000000000020000000000000000000000005992fe461f81c8e0affa95b831e50e9b3854ba0e000000000000000000000000f315b9006c20913d6d8498bdf657e778d4ddf2c4",
        "nonce": "0x3ab",
        "accessList": []
      },
      "additionalContracts": [],
      "isFixedGasLimit": false
    }
  ],
  "receipts": [
    {
      "transactionHash": "0x7d9ece18d2f5926884430f5e729d238174d23d61addd7033c9d57dc462b6d3db",
      "transactionIndex": "0x6",
      "blockHash": "0x335c21d1fbe81de8b3e7310adb412dec2c733b8186175f2f26068f5b73530820",
      "blockNumber": "0x573add",
      "from": "0x5992Fe461F81C8E0aFFA95b831E50e9b3854BA0E",
      "to": "0x5dB9f4C9239345308614604e69258C0bba9b437f",
      "cumulativeGasUsed": "0x85839",
      "gasUsed": "0xb4b8",
      "contractAddress": null,
      "logs": [
        {
          "address": "0x5dB9f4C9239345308614604e69258C0bba9b437f",
          "topics": [
            "0x8c5be1e5ebec7d5bd14f71427d1e84f3dd0314c0f7b2291e5b200ac8c7c3b925",
            "0x0000000000000000000000005992fe461f81c8e0affa95b831e50e9b3854ba0e",
            "0x000000000000000000000000dfaf9a0cb22275bd7ba2c883fff64919c7930d14"
          ],
          "data": "0x000000000000000000000000000000000000000000000001158e460913d00000",
          "blockHash": "0x335c21d1fbe81de8b3e7310adb412dec2c733b8186175f2f26068f5b73530820",
          "blockNumber": "0x573add",
          "transactionHash": "0x7d9ece18d2f5926884430f5e729d238174d23d61addd7033c9d57dc462b6d3db",
          "transactionIndex": "0x6",
          "logIndex": "0xd",
          "removed": false
        }
      ],
      "status": "0x1",
      "logsBloom": "0x00000000000000000000000000000000000000000020000000000000000000000000000000000000000200000000000000000000000000000000000000200000000000000000000200000000000000000000000000000000000000000000000000000000000000000000000000000000000000000000000000000000000000000000000800000000000000000000000000000000000000000000000000004000020000000000000000000000000002000000000000000000040000040000000000000000000000000000000000000000000000000400000000000000000000000010000000000000000000000000000000000000000000000000000000000000",
      "type": "0x2",
      "effectiveGasPrice": "0xbd5ee484"
    },
    {
      "transactionHash": "0xe280a3bfdf3b40e18cc41208aacacee790f6d1741538e668bab3515fdba26e2e",
      "transactionIndex": "0x7",
      "blockHash": "0x335c21d1fbe81de8b3e7310adb412dec2c733b8186175f2f26068f5b73530820",
      "blockNumber": "0x573add",
      "from": "0x5992Fe461F81C8E0aFFA95b831E50e9b3854BA0E",
      "to": "0xdfaf9a0cB22275bd7BA2c883fff64919C7930d14",
      "cumulativeGasUsed": "0x10c82e",
      "gasUsed": "0x86ff5",
      "contractAddress": null,
      "logs": [
        {
          "address": "0xF30F852991775BC0A9C3880D1Ab9c464DAE7F8F0",
          "topics": [
            "0xddf252ad1be2c89b69c2b068fc378daa952ba7f163c4a11628f55a4df523b3ef",
            "0x0000000000000000000000000000000000000000000000000000000000000000",
            "0x0000000000000000000000005992fe461f81c8e0affa95b831e50e9b3854ba0e",
            "0x0000000000000000000000000000000000000000000000000000000000000002"
          ],
          "data": "0x",
          "blockHash": "0x335c21d1fbe81de8b3e7310adb412dec2c733b8186175f2f26068f5b73530820",
          "blockNumber": "0x573add",
          "transactionHash": "0xe280a3bfdf3b40e18cc41208aacacee790f6d1741538e668bab3515fdba26e2e",
          "transactionIndex": "0x7",
          "logIndex": "0xe",
          "removed": false
        },
        {
          "address": "0xdfaf9a0cB22275bd7BA2c883fff64919C7930d14",
          "topics": [
            "0xf3d1350815c4f9db2be36c35f840bfb002835a83ff1c3d8f3a217b1e6227d5aa",
            "0x000000000000000000000000f30f852991775bc0a9c3880d1ab9c464dae7f8f0",
            "0x0000000000000000000000000000000000000000000000000000000000000002"
          ],
          "data": "0x00000000000000000000000000000000000000000000000000000000000000020000000000000000000000005db9f4c9239345308614604e69258c0bba9b437f00000000000000000000000000000000000000000000000000000000000000000000000000000000000000000000000000000000000000008ac7230489e80000",
          "blockHash": "0x335c21d1fbe81de8b3e7310adb412dec2c733b8186175f2f26068f5b73530820",
          "blockNumber": "0x573add",
          "transactionHash": "0xe280a3bfdf3b40e18cc41208aacacee790f6d1741538e668bab3515fdba26e2e",
          "transactionIndex": "0x7",
          "logIndex": "0xf",
          "removed": false
        },
        {
          "address": "0xdfaf9a0cB22275bd7BA2c883fff64919C7930d14",
          "topics": [
            "0xa90a3b8dae41ae10a708d32fec7bf12da5c90879c98b9c4cca3c8fba91ddf493",
            "0x0000000000000000000000000000000000000000000000000000000000000000",
            "0x000000000000000000000000f30f852991775bc0a9c3880d1ab9c464dae7f8f0",
            "0x0000000000000000000000000000000000000000000000000000000000000000"
          ],
          "data": "0x00000000000000000000000000000000000000000000000000000000000000020000000000000000000000005992fe461f81c8e0affa95b831e50e9b3854ba0e00000000000000000000000000000000000000000000000000000000000000000000000000000000000000000000000000000000000000000000000000000000",
          "blockHash": "0x335c21d1fbe81de8b3e7310adb412dec2c733b8186175f2f26068f5b73530820",
          "blockNumber": "0x573add",
          "transactionHash": "0xe280a3bfdf3b40e18cc41208aacacee790f6d1741538e668bab3515fdba26e2e",
          "transactionIndex": "0x7",
          "logIndex": "0x10",
          "removed": false
        },
        {
          "address": "0xF30F852991775BC0A9C3880D1Ab9c464DAE7F8F0",
          "topics": [
            "0xddf252ad1be2c89b69c2b068fc378daa952ba7f163c4a11628f55a4df523b3ef",
            "0x0000000000000000000000000000000000000000000000000000000000000000",
            "0x000000000000000000000000f315b9006c20913d6d8498bdf657e778d4ddf2c4",
            "0x0000000000000000000000000000000000000000000000000000000000000003"
          ],
          "data": "0x",
          "blockHash": "0x335c21d1fbe81de8b3e7310adb412dec2c733b8186175f2f26068f5b73530820",
          "blockNumber": "0x573add",
          "transactionHash": "0xe280a3bfdf3b40e18cc41208aacacee790f6d1741538e668bab3515fdba26e2e",
          "transactionIndex": "0x7",
          "logIndex": "0x11",
          "removed": false
        },
        {
          "address": "0xdfaf9a0cB22275bd7BA2c883fff64919C7930d14",
          "topics": [
            "0xf3d1350815c4f9db2be36c35f840bfb002835a83ff1c3d8f3a217b1e6227d5aa",
            "0x000000000000000000000000f30f852991775bc0a9c3880d1ab9c464dae7f8f0",
            "0x0000000000000000000000000000000000000000000000000000000000000003"
          ],
          "data": "0x00000000000000000000000000000000000000000000000000000000000000020000000000000000000000005db9f4c9239345308614604e69258c0bba9b437f00000000000000000000000000000000000000000000000000000000000000000000000000000000000000000000000000000000000000008ac7230489e80000",
          "blockHash": "0x335c21d1fbe81de8b3e7310adb412dec2c733b8186175f2f26068f5b73530820",
          "blockNumber": "0x573add",
          "transactionHash": "0xe280a3bfdf3b40e18cc41208aacacee790f6d1741538e668bab3515fdba26e2e",
          "transactionIndex": "0x7",
          "logIndex": "0x12",
          "removed": false
        },
        {
          "address": "0xdfaf9a0cB22275bd7BA2c883fff64919C7930d14",
          "topics": [
            "0xa90a3b8dae41ae10a708d32fec7bf12da5c90879c98b9c4cca3c8fba91ddf493",
            "0x0000000000000000000000000000000000000000000000000000000000000000",
            "0x000000000000000000000000f30f852991775bc0a9c3880d1ab9c464dae7f8f0",
            "0x0000000000000000000000000000000000000000000000000000000000000000"
          ],
          "data": "0x0000000000000000000000000000000000000000000000000000000000000003000000000000000000000000f315b9006c20913d6d8498bdf657e778d4ddf2c400000000000000000000000000000000000000000000000000000000000000000000000000000000000000000000000000000000000000000000000000000000",
          "blockHash": "0x335c21d1fbe81de8b3e7310adb412dec2c733b8186175f2f26068f5b73530820",
          "blockNumber": "0x573add",
          "transactionHash": "0xe280a3bfdf3b40e18cc41208aacacee790f6d1741538e668bab3515fdba26e2e",
          "transactionIndex": "0x7",
          "logIndex": "0x13",
          "removed": false
        },
        {
          "address": "0x5dB9f4C9239345308614604e69258C0bba9b437f",
          "topics": [
            "0xddf252ad1be2c89b69c2b068fc378daa952ba7f163c4a11628f55a4df523b3ef",
            "0x0000000000000000000000005992fe461f81c8e0affa95b831e50e9b3854ba0e",
            "0x000000000000000000000000dfaf9a0cb22275bd7ba2c883fff64919c7930d14"
          ],
          "data": "0x000000000000000000000000000000000000000000000001158e460913d00000",
          "blockHash": "0x335c21d1fbe81de8b3e7310adb412dec2c733b8186175f2f26068f5b73530820",
          "blockNumber": "0x573add",
          "transactionHash": "0xe280a3bfdf3b40e18cc41208aacacee790f6d1741538e668bab3515fdba26e2e",
          "transactionIndex": "0x7",
          "logIndex": "0x14",
          "removed": false
        },
        {
          "address": "0x5dB9f4C9239345308614604e69258C0bba9b437f",
          "topics": [
            "0x8c5be1e5ebec7d5bd14f71427d1e84f3dd0314c0f7b2291e5b200ac8c7c3b925",
            "0x0000000000000000000000005992fe461f81c8e0affa95b831e50e9b3854ba0e",
            "0x000000000000000000000000dfaf9a0cb22275bd7ba2c883fff64919c7930d14"
          ],
          "data": "0x0000000000000000000000000000000000000000000000000000000000000000",
          "blockHash": "0x335c21d1fbe81de8b3e7310adb412dec2c733b8186175f2f26068f5b73530820",
          "blockNumber": "0x573add",
          "transactionHash": "0xe280a3bfdf3b40e18cc41208aacacee790f6d1741538e668bab3515fdba26e2e",
          "transactionIndex": "0x7",
          "logIndex": "0x15",
          "removed": false
        }
      ],
      "status": "0x1",
      "logsBloom": "0x04000000000200000000000000000000000000000020000000000000000000000000000000000000000200000000080000020000020000000000000000200002000000000000000200000008004000000000000000000000000000000000000000000000020000000000000000000800000000000040000000000010000200000000000800400000000000000000000000000002000000800200000200004000020000000000000400000100000002000000000000800000040000040400400000000082000000000000000000000000000000000400000000000000000020000010800000000000000000000000000000000000008200000008000000000000",
      "type": "0x2",
      "effectiveGasPrice": "0xbd5ee484"
    }
  ],
  "libraries": [],
  "pending": [],
  "returns": {},
  "timestamp": 1713343012,
  "chain": 11155111,
  "commit": "28cd6d2"
}