{
  "transactions": [
    {
      "hash": "0x6d34c8d91053cfb05a92b375aa992046b5fc01a6c945a53c9d2469aee53cd7d4",
      "transactionType": "CALL",
      "contractName": null,
      "contractAddress": "0x5dB9f4C9239345308614604e69258C0bba9b437f",
      "function": "approve(address,uint256)",
      "arguments": [
        "0x7EdB762bb3E7a7402Bb3Cd8DFAEb04Fe15ab0829",
        "20000000000000000000"
      ],
      "transaction": {
        "type": "0x02",
        "from": "0x5992fe461f81c8e0affa95b831e50e9b3854ba0e",
        "to": "0x5db9f4c9239345308614604e69258c0bba9b437f",
        "gas": "0xf99d",
        "value": "0x0",
        "data": "0x095ea7b30000000000000000000000007edb762bb3e7a7402bb3cd8dfaeb04fe15ab0829000000000000000000000000000000000000000000000001158e460913d00000",
        "nonce": "0x3a3",
        "accessList": []
      },
      "additionalContracts": [],
      "isFixedGasLimit": false
    },
    {
      "hash": "0xe52391f5d56537b0d71b7a3d9cde01faf343b0d72024ef07cccffc6348cc71b2",
      "transactionType": "CALL",
      "contractName": null,
      "contractAddress": "0x7EdB762bb3E7a7402Bb3Cd8DFAEb04Fe15ab0829",
      "function": "wrapBatch((((uint8,address),uint256,uint256),address,(bytes1,uint256,address)[],(bytes1,uint256)[],(address,uint16)[],uint8,uint256,bytes2)[],((uint8,address),uint256,uint256)[],address[],address)",
      "arguments": [
        "[(((0, 0x0000000000000000000000000000000000000000), 0, 0), 0x0000000000000000000000000000000000000000, [], [], [], 3, 0, 0x0000000000000000000000000000000000000000000000000000000000000000), (((0, 0x0000000000000000000000000000000000000000), 0, 0), 0x0000000000000000000000000000000000000000, [], [], [], 3, 0, 0x0000000000000000000000000000000000000000000000000000000000000000)]",
        "[((2, 0x5dB9f4C9239345308614604e69258C0bba9b437f), 0, 10000000000000000000)]",
        "[0x5992Fe461F81C8E0aFFA95b831E50e9b3854BA0E, 0xf315B9006C20913D6D8498BDf657E778d4Ddf2c4]",
        "0x7851990E0005d7931caAcD9c8b681B4eF7490062"
      ],
      "transaction": {
        "type": "0x02",
        "from": "0x5992fe461f81c8e0affa95b831e50e9b3854ba0e",
        "to": "0x7edb762bb3e7a7402bb3cd8dfaeb04fe15ab0829",
        "gas": "0xb7fb9",
        "value": "0x0",
        "data": "0x6b090f8c0000000000000000000000000000000000000000000000000000000000000080000000000000000000000000000000000000000000000000000000000000046000000000000000000000000000000000000000000000000000000000000005000000000000000000000000007851990e0005d7931caacd9c8b681b4ef7490062000000000000000000000000000000000000000000000000000000000000000200000000000000000000000000000000000000000000000000000000000000400000000000000000000000000000000000000000000000000000000000000200000000000000000000000000000000000000000000000000000000000000000000000000000000000000000000000000000000000000000000000000000000000000000000000000000000000000000000000000000000000000000000000000000000000000000000000000000000000000000000000000000000000000000000000000000000000000000000000000000000000000000000000000000000000000000000000000000000000000000000000000000000000000000000000160000000000000000000000000000000000000000000000000000000000000018000000000000000000000000000000000000000000000000000000000000001a0000000000000000000000000000000000000000000000000000000000000000300000000000000000000000000000000000000000000000000000000000000000000000000000000000000000000000000000000000000000000000000000000000000000000000000000000000000000000000000000000000000000000000000000000000000000000000000000000000000000000000000000000000000000000000000000000000000000000000000000000000000000000000000000000000000000000000000000000000000000000000000000000000000000000000000000000000000000000000000000000000000000000000000000000000000000000000000000000000000000000000000000000000000000000000000000000000000000000000000000000000000000000000000000000000000000000000000000000000000000000000000000000000000000000000000000000000000000000000000000000000000000000000000000000000000000000000000000160000000000000000000000000000000000000000000000000000000000000018000000000000000000000000000000000000000000000000000000000000001a0000000000000000000000000000000000000000000000000000000000000000300000000000000000000000000000000000000000000000000000000000000000000000000000000000000000000000000000000000000000000000000000000000000000000000000000000000000000000000000000000000000000000000000000000000000000000000000000000000000000000000000000000000000000000000000000000000000000000000000000000000000000000000000000000000000000000000000000000000000000000000000000000000000000000000100000000000000000000000000000000000000000000000000000000000000020000000000000000000000005db9f4c9239345308614604e69258c0bba9b437f00000000000000000000000000000000000000000000000000000000000000000000000000000000000000000000000000000000000000008ac7230489e8000000000000000000000000000000000000000000000000000000000000000000020000000000000000000000005992fe461f81c8e0affa95b831e50e9b3854ba0e000000000000000000000000f315b9006c20913d6d8498bdf657e778d4ddf2c4",
        "nonce": "0x3a4",
        "accessList": []
      },
      "additionalContracts": [],
      "isFixedGasLimit": false
    }
  ],
  "receipts": [
    {
      "transactionHash": "0x6d34c8d91053cfb05a92b375aa992046b5fc01a6c945a53c9d2469aee53cd7d4",
      "transactionIndex": "0x1f",
      "blockHash": "0x933bffaedd5bedc7e85a9b2f45bd153d3606c12320f775662182d9e709662e6a",
      "blockNumber": "0x570422",
      "from": "0x5992Fe461F81C8E0aFFA95b831E50e9b3854BA0E",
      "to": "0x5dB9f4C9239345308614604e69258C0bba9b437f",
      "cumulativeGasUsed": "0x113ee9",
      "gasUsed": "0xb4b8",
      "contractAddress": null,
      "logs": [
        {
          "address": "0x5dB9f4C9239345308614604e69258C0bba9b437f",
          "topics": [
            "0x8c5be1e5ebec7d5bd14f71427d1e84f3dd0314c0f7b2291e5b200ac8c7c3b925",
            "0x0000000000000000000000005992fe461f81c8e0affa95b831e50e9b3854ba0e",
            "0x0000000000000000000000007edb762bb3e7a7402bb3cd8dfaeb04fe15ab0829"
          ],
          "data": "0x000000000000000000000000000000000000000000000001158e460913d00000",
          "blockHash": "0x933bffaedd5bedc7e85a9b2f45bd153d3606c12320f775662182d9e709662e6a",
          "blockNumber": "0x570422",
          "transactionHash": "0x6d34c8d91053cfb05a92b375aa992046b5fc01a6c945a53c9d2469aee53cd7d4",
          "transactionIndex": "0x1f",
          "logIndex": "0xa",
          "removed": false
        }
      ],
      "status": "0x1",
      "logsBloom": "0x00000000000000000000000000000000000000000020000000000000000000000000000000000000000200000000000000000000000000000000000400200000000000000000000000000000000000000000000000000000000000000000000000000000000000000000000000000000002000000000000000000000000000000000000800000000000000000000000000000000000000000000000000004000020000000000000000000000000000000000000000000000040000000000000000000000000000000000000000000000000000000400000000000000000000000010000000000000000000020000000000000000000000000000000000000000",
      "type": "0x2",
      "effectiveGasPrice": "0xed445cfb"
    },
    {
      "transactionHash": "0xe52391f5d56537b0d71b7a3d9cde01faf343b0d72024ef07cccffc6348cc71b2",
      "transactionIndex": "0x20",
      "blockHash": "0x933bffaedd5bedc7e85a9b2f45bd153d3606c12320f775662182d9e709662e6a",
      "blockNumber": "0x570422",
      "from": "0x5992Fe461F81C8E0aFFA95b831E50e9b3854BA0E",
      "to": "0x7EdB762bb3E7a7402Bb3Cd8DFAEb04Fe15ab0829",
      "cumulativeGasUsed": "0x19921d",
      "gasUsed": "0x85334",
      "contractAddress": null,
      "logs": [
        {
          "address": "0x7851990E0005d7931caAcD9c8b681B4eF7490062",
          "topics": [
            "0xddf252ad1be2c89b69c2b068fc378daa952ba7f163c4a11628f55a4df523b3ef",
            "0x0000000000000000000000000000000000000000000000000000000000000000",
            "0x0000000000000000000000005992fe461f81c8e0affa95b831e50e9b3854ba0e",
            "0x0000000000000000000000000000000000000000000000000000000000000008"
          ],
          "data": "0x",
          "blockHash": "0x933bffaedd5bedc7e85a9b2f45bd153d3606c12320f775662182d9e709662e6a",
          "blockNumber": "0x570422",
          "transactionHash": "0xe52391f5d56537b0d71b7a3d9cde01faf343b0d72024ef07cccffc6348cc71b2",
          "transactionIndex": "0x20",
          "logIndex": "0xb",
          "removed": false
        },
        {
          "address": "0x7EdB762bb3E7a7402Bb3Cd8DFAEb04Fe15ab0829",
          "topics": [
            "0xf3d1350815c4f9db2be36c35f840bfb002835a83ff1c3d8f3a217b1e6227d5aa",
            "0x0000000000000000000000007851990e0005d7931caacd9c8b681b4ef7490062",
            "0x0000000000000000000000000000000000000000000000000000000000000008"
          ],
          "data": "0x00000000000000000000000000000000000000000000000000000000000000020000000000000000000000005db9f4c9239345308614604e69258c0bba9b437f00000000000000000000000000000000000000000000000000000000000000000000000000000000000000000000000000000000000000008ac7230489e80000",
          "blockHash": "0x933bffaedd5bedc7e85a9b2f45bd153d3606c12320f775662182d9e709662e6a",
          "blockNumber": "0x570422",
          "transactionHash": "0xe52391f5d56537b0d71b7a3d9cde01faf343b0d72024ef07cccffc6348cc71b2",
          "transactionIndex": "0x20",
          "logIndex": "0xc",
          "removed": false
        },
        {
          "address": "0x7EdB762bb3E7a7402Bb3Cd8DFAEb04Fe15ab0829",
          "topics": [
            "0xa90a3b8dae41ae10a708d32fec7bf12da5c90879c98b9c4cca3c8fba91ddf493",
            "0x0000000000000000000000000000000000000000000000000000000000000000",
            "0x0000000000000000000000007851990e0005d7931caacd9c8b681b4ef7490062",
            "0x0000000000000000000000000000000000000000000000000000000000000000"
          ],
          "data": "0x00000000000000000000000000000000000000000000000000000000000000080000000000000000000000005992fe461f81c8e0affa95b831e50e9b3854ba0e00000000000000000000000000000000000000000000000000000000000000000000000000000000000000000000000000000000000000000000000000000000",
          "blockHash": "0x933bffaedd5bedc7e85a9b2f45bd153d3606c12320f775662182d9e709662e6a",
          "blockNumber": "0x570422",
          "transactionHash": "0xe52391f5d56537b0d71b7a3d9cde01faf343b0d72024ef07cccffc6348cc71b2",
          "transactionIndex": "0x20",
          "logIndex": "0xd",
          "removed": false
        },
        {
          "address": "0x7851990E0005d7931caAcD9c8b681B4eF7490062",
          "topics": [
            "0xddf252ad1be2c89b69c2b068fc378daa952ba7f163c4a11628f55a4df523b3ef",
            "0x0000000000000000000000000000000000000000000000000000000000000000",
            "0x000000000000000000000000f315b9006c20913d6d8498bdf657e778d4ddf2c4",
            "0x0000000000000000000000000000000000000000000000000000000000000009"
          ],
          "data": "0x",
          "blockHash": "0x933bffaedd5bedc7e85a9b2f45bd153d3606c12320f775662182d9e709662e6a",
          "blockNumber": "0x570422",
          "transactionHash": "0xe52391f5d56537b0d71b7a3d9cde01faf343b0d72024ef07cccffc6348cc71b2",
          "transactionIndex": "0x20",
          "logIndex": "0xe",
          "removed": false
        },
        {
          "address": "0x7EdB762bb3E7a7402Bb3Cd8DFAEb04Fe15ab0829",
          "topics": [
            "0xf3d1350815c4f9db2be36c35f840bfb002835a83ff1c3d8f3a217b1e6227d5aa",
            "0x0000000000000000000000007851990e0005d7931caacd9c8b681b4ef7490062",
            "0x0000000000000000000000000000000000000000000000000000000000000009"
          ],
          "data": "0x00000000000000000000000000000000000000000000000000000000000000020000000000000000000000005db9f4c9239345308614604e69258c0bba9b437f00000000000000000000000000000000000000000000000000000000000000000000000000000000000000000000000000000000000000008ac7230489e80000",
          "blockHash": "0x933bffaedd5bedc7e85a9b2f45bd153d3606c12320f775662182d9e709662e6a",
          "blockNumber": "0x570422",
          "transactionHash": "0xe52391f5d56537b0d71b7a3d9cde01faf343b0d72024ef07cccffc6348cc71b2",
          "transactionIndex": "0x20",
          "logIndex": "0xf",
          "removed": false
        },
        {
          "address": "0x7EdB762bb3E7a7402Bb3Cd8DFAEb04Fe15ab0829",
          "topics": [
            "0xa90a3b8dae41ae10a708d32fec7bf12da5c90879c98b9c4cca3c8fba91ddf493",
            "0x0000000000000000000000000000000000000000000000000000000000000000",
            "0x0000000000000000000000007851990e0005d7931caacd9c8b681b4ef7490062",
            "0x0000000000000000000000000000000000000000000000000000000000000000"
          ],
          "data": "0x0000000000000000000000000000000000000000000000000000000000000009000000000000000000000000f315b9006c20913d6d8498bdf657e778d4ddf2c400000000000000000000000000000000000000000000000000000000000000000000000000000000000000000000000000000000000000000000000000000000",
          "blockHash": "0x933bffaedd5bedc7e85a9b2f45bd153d3606c12320f775662182d9e709662e6a",
          "blockNumber": "0x570422",
          "transactionHash": "0xe52391f5d56537b0d71b7a3d9cde01faf343b0d72024ef07cccffc6348cc71b2",
          "transactionIndex": "0x20",
          "logIndex": "0x10",
          "removed": false
        },
        {
          "address": "0x5dB9f4C9239345308614604e69258C0bba9b437f",
          "topics": [
            "0xddf252ad1be2c89b69c2b068fc378daa952ba7f163c4a11628f55a4df523b3ef",
            "0x0000000000000000000000005992fe461f81c8e0affa95b831e50e9b3854ba0e",
            "0x0000000000000000000000007edb762bb3e7a7402bb3cd8dfaeb04fe15ab0829"
          ],
          "data": "0x000000000000000000000000000000000000000000000001158e460913d00000",
          "blockHash": "0x933bffaedd5bedc7e85a9b2f45bd153d3606c12320f775662182d9e709662e6a",
          "blockNumber": "0x570422",
          "transactionHash": "0xe52391f5d56537b0d71b7a3d9cde01faf343b0d72024ef07cccffc6348cc71b2",
          "transactionIndex": "0x20",
          "logIndex": "0x11",
          "removed": false
        },
        {
          "address": "0x5dB9f4C9239345308614604e69258C0bba9b437f",
          "topics": [
            "0x8c5be1e5ebec7d5bd14f71427d1e84f3dd0314c0f7b2291e5b200ac8c7c3b925",
            "0x0000000000000000000000005992fe461f81c8e0affa95b831e50e9b3854ba0e",
            "0x0000000000000000000000007edb762bb3e7a7402bb3cd8dfaeb04fe15ab0829"
          ],
          "data": "0x0000000000000000000000000000000000000000000000000000000000000000",
          "blockHash": "0x933bffaedd5bedc7e85a9b2f45bd153d3606c12320f775662182d9e709662e6a",
          "blockNumber": "0x570422",
          "transactionHash": "0xe52391f5d56537b0d71b7a3d9cde01faf343b0d72024ef07cccffc6348cc71b2",
          "transactionIndex": "0x20",
          "logIndex": "0x12",
          "removed": false
        }
      ],
      "status": "0x1",
      "logsBloom": "0x00000000000200000000000000000000000000010020001000000008000000000000000000000000000200000000000000000000000080000000000400200000000000000000000000000008004000000000000000080000000000000000000000000000020000000000000000000800002000000040000000000010000200000080000800400000000000000000000000001000000000800000000200004000020000000000000000000000000000000100000000100000040001000000000040008082000000000000000000000000000000000401000000000000000020000010000000000000000000020000000000000000000200000000000000800000",
      "type": "0x2",
      "effectiveGasPrice": "0xed445cfb"
    }
  ],
  "libraries": [],
  "pending": [],
  "returns": {},
  "timestamp": 1713174627,
  "chain": 11155111,
  "commit": "8985b2a"
}